:020000040800F2
:1000000028070020450A0008890300088B03000820
:100010008F03000893030008970300080000000006
:100020000000000000000000000000009B0300082A
:100030009D030008000000009F030008A1030008C2
:100040005F0A00085F0A00085F0A00085F0A0008EC
:100050005F0A00085F0A00085F0A00085F0A0008DC
:10006000550600085F0A00085F0A00085F0A0008DA
:100070005F0A00085F0A00085F0A00085F0A0008BC
:100080005F0A00085F0A00085F0A00085F0A0008AC
:100090005F0A00085F0A00085F0A00085F0A00089C
:1000A0005F0A00085F0A00085F0A00085F0A00088C
:1000B0005F0A00085F0A00085F0A00085F0A00087C
:1000C0005F0A00085F0A00085F0A00085F0A00086C
:1000D0005F0A00081F0A0008911900085F0A00085B
:1000E0005F0A00085F0A00085F0A00085F0A00084C
:1000F0005F0A00085F0A00085F0A00085F0A00083C
:100100005F0A00085F0A00085F0A00085F0A00082B
:100110005F0A00085F0A00085F0A00085F0A00081B
:100120005F0A00085F0A00085F0A00085F0A00080B
:1001300000F002F800F094F80AA090E8000C824465
:100140008344AAF10107DA4501D100F089F8AFF242
:10015000090EBAE80F0013F0010F18BFFB1A43F0A5
:1001600001031847F081000010820000103A24BFFC
:1001700078C878C1FAD8520724BF30C830C144BF0C
:1001800004680C607047000000230024002500264E
:10019000103A28BF78C1FBD8520728BF30C148BFEA
:1001A0000B6070476E2905F05B81702904F0298689
:1001B000662907F09287652907F08F87672907F07E
:1001C0008C876129AFF3008003681B0A28BF41F0C8
:1001D0008001692904F09A85642904F097857529BE
:1001E00004F094856F2905F05884782904F0F5858A
:1001F000E92905F0F383E42905F0F083F52905F0FA
:10020000ED83EF2905F05584F82904F0F48503689F
:10021000DB0928BF41F08001632905F0748373294D
:1002200005F07983E32905F03985F32905F03E854A
:10023000002070471FB59DE8030005F065F805F044
:100240007FFC04000020002107F0C8F8401C60601B
:100250000020002107F0D8F8E0601FBD10B510BDE8
:1002600005F012FE1146FFF7E5FF00F009F805F072
:100270003EFE03B4FFF7F2FF03BC05F0AFFE000043
:10028000A6B02E48006825902DA30FCBCDE92323DF
:10029000CDE921010025002400BF00BF4FF4A0607C
:1002A00000F0F0FB00F06EF900F052FA00F06CFA8A
:1002B0004FF4E13000F0D2FA4FF4E13000F021FBCE
:1002C00000F0A0F901F0DAFA03E04FF4FA7000F060
:1002D00098FA01F019FC0028F7D101201C490860A8
:1002E000FA2000F08EFA00201A49C1F8A00101217D
:1002F00025A801F073FC20E0681C80B20546C828E0
:1003000010DB15A1194800F066FB3C23142218A14C
:1003100001A804F095FC01A921A801F087FC0025A3
:1003200001F030FA032001F088FA044614B12046A7
:1003300001F0A8FC0A2000F064FADDE7D081000893
:100340002F6D79736D6172686F6D652F70756200C6
:10035000A0812142008021424F6E654E65745F503E
:1003600075626C6973680D0A000000000038014076
:1003700057656E44753A2025642C2053686944758E
:100380003A20256400000000704700BFFEE700BF70
:10039000FEE700BFFEE700BFFEE77047704770470B
:1003A000704700000CB50020019000906C48006878
:1003B00040F480306A49086000BF6948006800F472
:1003C000003000900198401C0190009818B90198E5
:1003D000B0F5A06FF1D16248006800F4003010B1B0
:1003E0000120009001E0002000900098012843D1F6
:1003F0005C48006840F010005A49086008460068F0
:1004000020F0030008600846006840F00200086021
:10041000534840685249486008464068486008466A
:10042000406840F4806048600846406820F47C10D2
:1004300048600846406840F4E81048600846006894
:1004400040F08070086000BF4548006800F0007010
:100450000028F9D04248406820F003004049486035
:100460000846406840F00200486000BF3C484068D1
:1004700000F00C000828F9D10CBD10B5FFF792FF71
:1004800010BD10B53648006840F0010034490860DE
:1004900008464068344908403149486008460068C9
:1004A000324908402E4908600846006820F4802040
:1004B00008600846406820F4FE0048604FF41F00C2
:1004C0008860FFF7DAFF4FF000602949086010BD2F
:1004D00010B5002100200022214B5B6803F00C01C5
:1004E00021B1042906D0082928D107E0214B224C4C
:1004F000236027E01F4B204C236023E0184B5B68F0
:1005000003F47010164B5B6803F48032022303EB94
:10051000904022B9194B4343174C23600DE0104B18
:100520005B6803F4003323B1144B4343124C236044
:1005300003E0104B4343104C236003E00D4B0E4C83
:10054000236000BF00BF064B5B68C3F303130C4C72
:10055000E15C094B1B68CB40074C236010BD0000D9
:1005600000100240002002400000FFF8FFFFF6FEEE
:1005700008ED00E000127A000400002000093D00B0
:100580000800002008B50121482000F005FE2020C9
:10059000ADF8000010208DF8030003208DF8020054
:1005A0006946094800F03CFB2021074800F0E5FBC4
:1005B0002020ADF800006946044800F031FB2021FE
:1005C000024800F0DAFB08BD000C014000180140B1
:1005D00008B50121442000F0DFFD1C20ADF800002B
:1005E00048208DF803006946544800F019FB0120AB
:1005F000ADF8000028208DF803006946504800F04F
:100600000FFB08BD0EB5FFF7E3FF0121084600F020
:10061000C3FD0221042000F019FC042001900020F9
:100620008DF808000C208DF8090001208DF80A00D3
:1006300001A801F027F808208DF8000001208DF8AE
:1006400003008DF8010002208DF80200684600F0DA
:100650001EFA0EBD10B53B48006808B9012000E045
:10066000002038490860052000F0CBF836480078B3
:10067000401C35490870042001F07BF810BD10B50E
:10068000044614B101203149087030480078002830
:1006900037D01021294800F056FB78B108212748AF
:1006A00000F051FB50B10421244800F04CFB28B16C
:1006B0000121234800F047FB012822D10A2000F045
:1006C000A0F800202149087010211C4800F03BFBD5
:1006D00008B9012010BD0821184800F034FB08B902
:1006E0000220F7E70421154800F02DFB08B903208C
:1006F000F0E70121124800F026FB01281BD104205D
:10070000E8E710210D4800F01EFB012813D1082155
:100710000A4800F018FB01280DD10421074800F019
:1007200012FB012807D10121054800F00CFB10B98C
:100730000120064908700020CCE7000000180140A5
:100740000008014094812142000000201800002090
:1007500008B50121082000F01FFD4FF48070ADF8AE
:10076000000010208DF8030003208DF80200694678
:10077000044800F055FA4FF48071024800F0FFFA87
:1007800008BD0000000C014010B56FF0040000F03F
:10079000C8F92E4800682E49B0FBF1F02D490870C9
:1007A0000846007800EB4001C1EBC0104FF6FF7126
:1007B00001EAC0002849088010BD0146254A127888
:1007C0004A434FF0E0235A6100229A611A461269A7
:1007D00042F001021A6100BF4FF0E022106900F000
:1007E00001021AB100F48032002AF5D04FF0E02265
:1007F000126922F001024FF0E0231A6100229A618F
:1008000070470146144A12884A434FF0E0235A6168
:1008100000229A611A46126942F001021A6100BF71
:100820004FF0E022106900F001021AB100F48032AA
:10083000002AF5D04FF0E022126922F001024FF0B9
:10084000E0231A6100229A61704700000400002032
:1008500000127A001A0000201C00002010B586B09B
:1008600004460121042000F097FC0121880300F0D8
:1008700093FC18208DF817004FF40070ADF81400A9
:1008800003208DF8160005A96B4800F0C9F9042073
:100890008DF817000002ADF8140003208DF8160043
:1008A00005A9654800F0BCF901940020ADF81000DE
:1008B0000C20ADF80E000020ADF80C00ADF80A00D9
:1008C000ADF8080001A95D4800F00DFD01215B486D
:1008D00000F095FD012240F22551584800F09BFDA3
:1008E00025208DF8000001208DF8030000208DF8F0
:1008F000010002208DF80200684600F0C8F806B03A
:1009000010BD10B586B004460121042000F044FC5F
:100910000121480400F04DFC18208DF81700042038
:10092000ADF8140003208DF8160005A9424800F028
:1009300077F904208DF817000820ADF81400032083
:100940008DF8160005A93C4800F06AF901940020D2
:10095000ADF810000C20ADF80E000020ADF80C0032
:10096000ADF80A00ADF8080001A9354800F0BBFC5D
:100970000121334800F043FD012240F22551304867
:1009800000F049FD26208DF8000001208DF80300BD
:1009900000208DF801008DF80200684600F077F81D
:1009A00006B010BD2DE9F04107460C46154600265D
:1009B0000DE014F8011B384600F08EFD00BF402109
:1009C000384600F0F7FD0028F9D0701C86B2AE4220
:1009D000EFDBBDE8F0810FB430B5CBB0054601AC1C
:1009E00050A800904FF4947101A8009B4F9A04F016
:1009F0000DF9002000900BE014F8011B284600F0D0
:100A00006BFD00BF4021284600F0D4FD0028F9D03E
:100A100020780028F0D14BB030BC5DF814FB10B545
:100A200040F22551054800F0DBFD18B120210348B4
:100A300000F0CDFD10BD000000080140003801406D
:100A4000004400400948804709480047FEE7FEE7A8
:100A5000FEE7FEE7FEE7FEE7FEE7FEE7FEE7FEE76E
:100A600004480549054A064B704700008304000806
:100A70003101000828010020280700202803002059
:100A80002803002031490143314A1160704770B595
:100A9000002100230F22C47804B32D4C246804F4F1
:100AA000E064C4F5E064210AC1F10403CA4044785B
:100AB00004FA03F18478144021430901254C067897
:100AC000A155047804F01F050124AC4005786D1190
:100AD000AD0005F1E025C5F8004109E0047804F017
:100AE0001F050124AC401C4D0678761145F82640C0
:100AF00070BD1A4A0A400243154B1B1F1A6070470B
:100B000039B1134A121D12680243114B1B1D1A60A2
:100B100006E00F4A121D126882430D4B1B1D1A601E
:100B20007047042808D14FF0E021096941F0040121
:100B30004FF0E022116107E04FF0E021096921F058
:100B400004014FF0E0221161704700000000FA0537
:100B50000CED00E000E400E080E100E080FFFF1F1A
:100B600010B50446CC48844208D10121042000F08D
:100B70002DFB0021042000F029FB46E0C7488442F9
:100B800008D10121082000F021FB0021082000F0FD
:100B90001DFB3AE0C248844208D10121102000F038
:100BA00015FB0021102000F011FB2EE0BD4884420F
:100BB00008D10121202000F009FB0021202000F0B5
:100BC00005FB22E0B848844208D10121402000F012
:100BD000FDFA0021402000F0F9FA16E0B348844203
:100BE00008D10121802000F0F1FA0021802000F0DE
:100BF000EDFA0AE0AE48844207D10121801500F0E9
:100C0000E5FA0021A01500F0E1FA10BD10B50121B0
:100C1000084600F0DBFA0021012000F0D7FA10BDF1
:100C20002DE9F04102460025002600200023002483
:100C3000002791F803C00CF00F0591F803C00CF0E9
:100C4000100CBCF1000F03D091F802C04CEA05056E
:100C500091F800C0BCF1000F31D0146800202BE0E7
:100C60004FF0010C0CFA00F3B1F800C00CEA0306D7
:100C70009E4220D183004FF00F0C0CFA03F7BC43C7
:100C800005FA03FC4CEA040491F803C0BCF1280FF8
:100C900006D14FF0010C0CFA00FCC2F814C00AE0B7
:100CA00091F803C0BCF1480F05D14FF0010C0CFACC
:100CB00000FCC2F810C0401C0828D1D31460B1F861
:100CC00000C0BCF1FF0F34DD546800202EE000F1BD
:100CD000080C4FF0010808FA0CF3B1F800C00CEA58
:100CE00003069E4221D183004FF00F0C0CFA03F74C
:100CF000BC4305FA03FC4CEA040491F803C0BCF1C0
:100D0000280F05D100F1080C08FA0CF8C2F814807D
:100D100091F803C0BCF1480F07D100F1080C4FF067
:100D2000010808FA0CF8C2F81080401C0828CED33D
:100D30005460BDE8F0814FF6FF710180022181709F
:100D40000421C17070470246002093680B400BB12C
:100D5000012000E0002070470146886880B270479B
:100D600002460020D3680B400BB1012000E00020B8
:100D700070470146C86880B27047016170474161A1
:100D800070470AB1016100E041617047C16070477E
:100D90004FF480320A438261816182618269826993
:100DA000704702460020434B18684FF68073184086
:100DB00040EA021008433F4B186070473E49C86143
:100DC0007047F0B50A46002300240021002500F0FA
:100DD0000046B6F1004F02D1364EF16901E0354EC2
:100DE0007168C0F3034583B200F44016B6F5401FA6
:100DF00008D121F070612F4E766826F070662D4F75
:100E00007E6012E000F48016B6F5801F06D103263E
:100E100006FA05F4A14341F0706106E0460D360183
:100E200003FA06F6B14341F0706122B1460D360176
:100E300003FA06F6314300F00046B6F1004F02D146
:100E40001C4EF16101E01B4E7160F0BD30B5002217
:100E50008B071C0F0F2303FA04F2164B08338C1078
:100E600053F824309343134C08348D1044F8253044
:100E700023468C1053F824308C07240F00FA04F416
:100E800023430C4C08348D1044F8253030BD0A49FA
:100E9000DC3108607047000000080140000C014090
:100EA000001001400014014000180140001C0140E6
:100EB000002001400000014000002042DF4800689F
:100EC00040F00100DD49086008464068DC49084000
:100ED000DA49486008460068DA490840D74908609E
:100EE0000846006820F4802008600846406820F426
:100EF000FE0048604FF41F0088607047CF490968C2
:100F000021F48031CD4A11601146096821F4802115
:100F10001160B0F5803F03D0B0F5802F0ED106E010
:100F2000C649096841F48031C44A116007E0C349E9
:100F3000096841F4A021C14A116000E000BF00BF70
:100F4000704710B501460022002300204A11012AF3
:100F500002D1BA4C236806E0022A02D1B74C236AB8
:100F600001E0B64C636A01F01F02012494401C406A
:100F70000CB1012000E0002010BD38B50020009029
:100F80000024002500BF3120FFF7DBFF0546009855
:100F9000401C00900098B0F5A06F01D0002DF2D059
:100FA0003120FFF7CEFF08B1012400E000242046E5
:100FB00038BD01460020A14A106820F0F80040EA40
:100FC000C10010607047A0490860704702460020C9
:100FD0009A4B586820F47C1042EA01031843974B5F
:100FE0005860704798490866704701460020934A48
:100FF000506820F003000843506070478F484068F5
:1010000000F00C007047014600208C4A506820F028
:10101000F00008435060704701460020874A50683E
:1010200020F4E06008435060704701460020834A86
:10103000506820F4605040EAC1005060704729B108
:101040007E4A527A02437D4B5A7204E07B4A527ABE
:1010500082437A4B5A7270477B49D8310860704797
:1010600001460020754A506820F440400843506013
:1010700070470021714A20321170704A82F82010A6
:10108000012802D004280AD104E001216B4A203251
:10109000117005E00521694A2032117000E000BF9F
:1010A00000BF70476949086070476449096A014395
:1010B000624A11627047654944390860704730B52B
:1010C00000210022002400235C4D6D6805F00C0116
:1010D00021B1042905D0082923D105E05C4D056024
:1010E00022E05B4D05601FE0544D6D6805F4701201
:1010F000524D6D6805F48034022505EB92421CB90F
:10110000544D554305600BE04C4D6D6805F40035BA
:101110001DB1504D5543056002E04D4D55430560EE
:1011200002E04B4D056000BF00BF444D6D6805F007
:10113000F0010909484D6B5C0568DD4045603F4D95
:101140006D6805F4E061090A434D6B5C4568DD405C
:1011500085603A4D6D6805F46051C90A3E4D6B5C7F
:101160004568DD40C560354D6D6805F44041890B2B
:101170003A4D6B5CC568B5FBF3F5056130BD29B12F
:101180002E4A526902432D4B5A6104E02B4A5269A0
:1011900082432A4B5A61704729B1284A9269024317
:1011A000264B9A6104E0254A92698243234B9A6157
:1011B000704729B1214AD2690243204BDA6104E029
:1011C0001E4AD26982431D4BDA61704729B11B4A1E
:1011D000D2680243194BDA6004E0184AD2688243AD
:1011E000164BDA60704729B1144A12690243134B57
:1011F0001A6104E0114A12698243104B1A61704768
:1012000012494039086070470F49C86470470B495C
:10121000C87170470948406A40F0807007494862C9
:10122000704701460020054A92680A400AB1012031
:1012300000E00020704701498872704700100240AA
:101240000000FFF8FFFFF6FE000042428004424229
:1012500000127A0000093D001E0000202E00002030
:1012600010B50446FB48844209D101218803FFF7E9
:10127000ADFF00214FF48040FFF7A8FF32E0F648B1
:10128000844209D101214804FFF7ADFF00214FF44A
:101290000030FFF7A8FF25E0F048844209D1012182
:1012A0008804FFF7A0FF00214FF48020FFF79BFF89
:1012B00018E0EB48844209D10121C804FFF793FFED
:1012C00000214FF40020FFF78EFF0BE0E548844239
:1012D00008D101210805FFF786FF00214FF4801097
:1012E000FFF781FF10BD2DE9F04786B005460E4699
:1012F0000024A24600BFA1460027B08900B100BF6C
:101300002F462C8A4CF6FF700440F08804432C8250
:10131000AC894EF6F3100440B088318908437189D6
:1013200008430443AC81AC8A4FF6FF400440B089C7
:101330000443AC8201A8FFF7C2FEC648874202D12F
:10134000DDF810A001E0DDF80CA0A88900F4004051
:1013500040B10AEBCA0000EB0A1031684900B0FB4B
:10136000F1F807E00AEBCA0000EB0A1031688900C7
:10137000B0FBF1F86420B8FBF0F00401200964210F
:1013800001FB1089A88900F4004040B1322000EB35
:10139000C900B0FBF1F000F00700044308E0322080
:1013A00000EB09106421B0FBF1F000F00F000443E2
:1013B0002C8106B0BDE8F0874FF416510160002182
:1013C0008180C18001810C21418100218181704790
:1013D00010B502460020108A4FF2FF0318400B8818
:1013E0004C8823438C882343CC88234318431082A2
:1013F00010BD0021018041808180C180704721B1F2
:10140000828942F40052828104E082894DF6FF73A2
:101410001A4082817047F0B503460024002600255B
:10142000002040F66A17B94200D100BF1846C1F348
:10143000421401F01F06012707FA06F5012C01D11D
:101440000C3004E0022C01D1103000E014301AB14D
:1014500007682F43076002E00768AF430760F0BDED
:101460001AB1838A0B43838202E0838A8B4383828F
:101470007047028A4FF6F0731A400282028A0A43CA
:101480000282704782894FF2FF731A4082818289FB
:101490000A438281704721B1828942F0020282812F
:1014A00004E082894FF6FD731A4082817047028AF8
:1014B0004FF6DF731A400282028A0A4302827047A3
:1014C00021B1028A42F48042028204E0028A4BF691
:1014D000FF731A4002827047C1F30802828070478E
:1014E00001468888C0F308007047818941F00101F6
:1014F00081817047028BD2B20283028B42EA0122C1
:1015000002837047028B02F47F420283028B0A43FC
:101510000283704721B1828A42F02002828204E075
:10152000828A4FF6DF731A408282704721B1828A25
:1015300042F01002828204E0828A4FF6EF731A4072
:101540008282704721B1828A42F00802828204E0DE
:10155000828A4FF6F7731A408282704721B18289DE
:1015600042F40042828103E08289C2F30E0282814A
:10157000704721B1828A42F40062828204E0828A4A
:101580004FF2FF731A4082827047828A4FF6FB73D4
:101590001A408282828A0A438282704721B1828AFB
:1015A00042F00202828204E0828A4FF6FD731A4002
:1015B0008282704702460020B1F5007F00D100BF53
:1015C00013880B400BB1012000E00020704701F4AC
:1015D0000072B2F5007F00D100BFCA43028070479D
:1015E00070B50246002400230025002040F66A164C
:1015F000B14200D100BFC1F3421501F01F03012623
:1016000006FA03F3012D02D19689334006E0022D3C
:1016100002D1168A334001E0968A33400C1201262B
:1016200006FA04F41688344013B10CB1012000E02E
:10163000002070BD10B50022002340F66A14A142BC
:1016400000D100BF0A1201249440A3B2DC430480FD
:1016500010BD000000380140004400400048004038
:10166000004C004000500040002044490860091D23
:101670000860091D0860091D086041483F49143190
:101680000860704700213D498279002A3AD00A4615
:10169000126803689A430B461A600A1D12680368B1
:1016A0009A430B1D1A60027911440A6803681A43B1
:1016B0000A60324A0832126803689A432F4B083393
:1016C0001A601A1D126803689A432C4B0C331A6077
:1016D0004279102A0ED11A1F126803681A43274B49
:1016E00008331A601A1D126803681A43234B0C331F
:1016F0001A600DE02149427911440A6803681A43CF
:101700000A6005E0027911440A6803689A430A6096
:1017100070470021016001710C214171002181712C
:1017200070471649103109680143144A103211609C
:10173000704701460020114A143212680A400AB16B
:10174000012000E0002070470C4914310860704708
:10175000014600200022094B1B6803EA0102074BE7
:1017600014331B680B4013B10AB1012000E00020C4
:1017700070470249143108607047000000040140BE
:10178000FFFF0F0010B58021914803F049FD0020B4
:101790009049088010BD8F48008808B90120704723
:1017A0008C4800888C490988884203D100208949E7
:1017B0000880F4E787480088874908800120EEE721
:1017C0002DE9F04104460D46C826204603F047FCAB
:1017D00087B23A4621468148FFF7E4F80FE0FFF769
:1017E000DAFF48B929467A4803F003FC20B1FFF735
:1017F000C9FF0020BDE8F0810A20FFF702F8301E83
:10180000A6F10101CEB2EAD10120F3E730B589B0EB
:1018100004460D46FFF7B6FF2A4671A101A803F062
:101820000FFA73A101A8FFF7CBFF20B92A46214682
:101830006A48FFF7B7F809B030BD70B50546002417
:1018400000BFFFF7A8FF80B96AA1614803F0D1FB90
:10185000044654B13A21204603F0AFFB044614B1CC
:10186000641C204670BD0020FCE70520FEF7C9FF80
:10187000681E85B2002DE4DC0020F3E708B50121E5
:101880000420FFF789FC10208DF803008002ADF8DA
:10189000000003208DF8020069465848FFF7C0F9A0
:1018A00000224FF480415548FFF76BFAFA20FEF70B
:1018B000A8FF012291035148FFF763FA4FF4FA7031
:1018C000FEF79FFFFFF75EFF4DA14F48FFF783F83C
:1018D00003E04FF4FA70FEF794FF4CA14CA0FFF721
:1018E0006FFF0028F5D14CA14748FFF774F842A1DB
:1018F0004BA0FFF765FF4FF4FA70FEF782FF3EA1A1
:101900004AA0FFF75DFF4FF4FA70FEF77AFF4BA194
:101910003D48FFF760F803E04FF4FA70FEF771FFFF
:101920003AA149A0FFF74CFF0028F5D14AA136485B
:10193000FFF751F803E04FF4FA70FEF762FF33A1AE
:1019400049A0FFF73DFF0028F5D14BA12E48FFF736
:1019500042F803E04FF4FA70FEF753FF49A14BA0A1
:10196000FFF72EFF0028F5D150A12748FFF733F8E5
:1019700003E04FF4FA70FEF744FF50A151A0FFF7C7
:101980001FFF0028F5D15AA11F48FFF724F808BD12
:1019900010B540F225511148FFF722FEB0B10D48B5
:1019A0000088802802D300200A4908800B48001DC7
:1019B0000088C1B2074802880088401C054B188087
:1019C0000348815420210548FFF701FE10BD0000A7
:1019D0004400002032000020340000200044004079
:1019E00041542B43495053454E443D25640D0A0054
:1019F0003E0000004950442C00000000001001404F
:101A0000372E2041540D0A00003801404F4B000092
:101A100041540D0A00000000312C5253540D0A00AD
:101A200041542B5253540D0A0000000041542B43E3
:101A30004950434C4F53450D0A000000322E2043BD
:101A4000574D4F44450D0A0041542B43574D4F44C9
:101A5000453D310D0A000000332E2041542B4357E1
:101A6000444843500D0A000041542B435744484317
:101A7000503D312C310D0A00342E2043574A41503D
:101A80000D0A0000474F54204950000041542B4399
:101A9000574A41503D2241323034222C22313233D8
:101AA0003435363738220D0A00000000352E204329
:101AB000495053544152540D0A000000434F4E4EBA
:101AC0004543540041542B43495053544152543DD3
:101AD00022544350222C2262726F6B65722E656D08
:101AE00071782E696F222C313838330D0A000000CE
:101AF000362E204553503832363620496E697420D0
:101B00004F4B0D0A0000000030B58BB0002007904D
:101B1000089009900A900125D8A0DBA3DCA2DEA1E1
:101B20000090E948FEF757FF07A8002102910391B2
:101B3000CDE9041000912B02D0A20191D2A1D4A032
:101B400000F06BFC002842D1089A91B20798FFF789
:101B50005DFEFA20FFF771FE0446002C33D02046CC
:101B600000F026FC02282ED1204600F0BBFD0628FE
:101B700023D2DFE800F003090E13181DD3A1D248C9
:101B8000FEF729FF00251DE0D5A1CF48FEF723FF72
:101B900018E0DAA1CC48FEF71EFF13E0E0A1CA4826
:101BA000FEF719FF0EE0E6A1C748FEF714FF09E0B3
:101BB000ECA1C548FEF70FFF04E0F5A1C248FEF70F
:101BC0000AFF00BF00BF07A800F0AAFB03E0F7A1CF
:101BD000BD48FEF700FF28460BB030BD70B586B09B
:101BE00004460D46002600200290039004900590C4
:101BF00007E054F82620F6A1B348FEF7ECFE701C6F
:101C0000C6B2AE42F5DB02A82B4622460221009066
:101C1000142000F06CFF38B9039A91B20298FFF7D4
:101C2000F5FD02A800F07CFB06B070BD70B588B071
:101C300005460C4600200490059006900790234628
:101C40002A46E9A1A048FEF7C6FE204603F007FA9F
:101C5000064604A8012100220223CDE90032CDE985
:101C600002103346224629460A2000F04AFD38B9C0
:101C7000059A91B20498FFF7C9FD04A800F050FB43
:101C800008B070BD2DE9F04790B0814600200C905F
:101C90000D900E900F900B900A90099008900027DD
:101CA0000790D9480068069000260024A2464846BE
:101CB00000F07EFB0746F81E0D2873D2DFE800F027
:101CC0002BA6AFC9DB72DA72D9727272070008AB49
:101CD0000BAA0AA9484600F082FE0646D6B9BDF80E
:101CE00020000090C9A17848DDE90A23FEF773FEC1
:101CF0000CAADDE90A0100F0B8FE58B9CCA172487F
:101D0000FEF769FE0D9A91B20C98FFF77FFD0CA8C3
:101D100000F006FB53E2CC4807A908AA0BABCDE9BB
:101D20000021029009AA0AA9484601F008F80646CF
:101D3000002E6AD1BDF820000B99CDE90010BDF846
:101D40002430C2A160480A9AFEF745FE0B9802F0C3
:101D50001DF88046B8F1000F11D1CBA15A48FEF70B
:101D60003AFE03E04FF4FA70FEF74BFDFFF7CCFEAE
:101D70000028F7D1012106A8FFF730FF16E0C8A11F
:101D8000404602F009FC0546E86803280ED1C5A1CB
:101D90004D486A69FEF71FFE686920B10120C649F7
:101DA000086003E008E20020C34908609DF81C00B9
:101DB000012802D0022826D112E00CA9A2480088EE
:101DC00001F099F858B9BDA13F48FEF704FE0D9AFD
:101DD00091B20C98FFF71AFD0CA800F0A1FA13E0DD
:101DE0000CA99948008801F0B9F858B9B9A136484A
:101DF000FEF7F1FD0D9A91B20C98FFF707FD0CA8C4
:101E000000F08EFA00E000BF00BFD8E1484601F0C4
:101E100096F818B9B5A12C48FEF7DDFDCFE148468C
:101E200001F0C0F8A0B9B9A12748FEF7D4FD0CA96C
:101E30000A2001F0C6F858B9BAA12348FEF7CBFD35
:101E40000D9A91B20C98FFF7E1FC0CA800F068FA2B
:101E5000B5E17D480188484601F0D7F860B9B7A1DF
:101E60001948FEF7B8FD0CA90A2001F0E0F818B9EE
:101E700070E193E184E17AE178E1000031323334BA
:101E800035363738000000006C69616E00000000D4
:101E900031323334350000004F6E654E65745F4457
:101EA00065764C696E6B0D0A50524F49443A2025B5
:101EB000732C09415549463A2025732C094445564F
:101EC00049443A25730D0A00003801405469707383
:101ED0003A09C1ACBDD3B3C9B9A60D0A00000000D0
:101EE0005741524E3A09C1ACBDD3CAA7B0DCA3BA20
:101EF000D0ADD2E9B4EDCEF30D0A00005741524EF9
:101F00003A09C1ACBDD3CAA7B0DCA3BAB7C7B7A85A
:101F1000B5C4636C69656E7469640D0A00000000E5
:101F20005741524E3A09C1ACBDD3CAA7B0DCA3BADF
:101F3000B7FECEF1C6F7CAA7B0DC0D0A000000005C
:101F40005741524E3A09C1ACBDD3CAA7B0DCA3BABF
:101F5000D3C3BBA7C3FBBBF2C3DCC2EBB4EDCEF370
:101F60000D0A00005741524E3A09C1ACBDD3CAA771
:101F7000B0DCA3BAB7C7B7A8C1B4BDD328B1C8C82D
:101F8000E7746F6B656EB7C7B7A8290D0A0000002C
:101F90004552523A09C1ACBDD3CAA7B0DCA3BACEF0
:101FA000B4D6AAB4EDCEF30D0A0000005741524E4C
:101FB0003A094D5154545F5061636B6574436F6EC1
:101FC0006E656374204661696C65640D0A000000EB
:101FD00053756273637269626520546F7069633A06
:101FE0002025730D0A0000005075626C697368202B
:101FF000546F7069633A2025732C204D73673A2023
:1020000025730D0A00000000D4810008636D646927
:10201000643A2025732C207265713A2025732C2098
:102020007265715F6C656E3A2025640D0A000000D0
:10203000546970733A0953656E6420436D64526548
:1020400073700D0A0000000036000020746F706984
:10205000633A2025732C20746F7069635F6C656E22
:102060003A2025642C207061796C6F61643A2025D8
:10207000732C207061796C6F61645F6C656E3A20BF
:1020800025640D0A000000004572726F72206265BF
:10209000666F72652D2D2D2D2D2D2D2D2D0D0A00E8
:1020A0004C454400676574204C45442D2D2D3E2041
:1020B00025640D0A000000009401234254697073E6
:1020C0003A0953656E64205075626C6973684163A8
:1020D0006B0D0A00546970733A0953656E642050A1
:1020E00075626C6973685265630D0A005469707398
:1020F0003A094D515454205075626C6973682053ED
:10210000656E64204F4B0D0A000000005469707327
:102110003A09526576205075626C6973685265633E
:102120000D0A0000546970733A0953656E642050BB
:1021300075626C69736852656C0D0A00546970733E
:102140003A09526576205075626C69736852656C05
:102150000D0A000031A13848FEF73DFC0D9A91B2FE
:102160000C98FFF753FB0CA800F0DAF827E048467C
:1021700000F081FF18B931A12F48FEF72CFC1EE0BA
:10218000484600F033FD20B932A12B48FEF723FC6E
:1021900003E037A12848FEF71EFC10E0484600F097
:1021A000C5FD20B939A12448FEF715FC03E03EA186
:1021B0002148FEF710FC02E04FF0FF3600BF00BFE1
:1021C000FFF7E0FA701C10B910B0BDE8F0877D2170
:1021D0000B9802F0F2FE0446A4B1701C90B1641C8E
:1021E00006E014F8012B50460AF1010A03A90A542B
:1021F0002078302802DB20783928F2DD03A802F0AD
:10220000CFFE82460F2F01D0032F05D10A9802F08E
:10221000C8FC0B9802F0C5FC00BFD5E75469707389
:102220003A0953656E64205075626C697368436F38
:102230006D700D0A00000000003801405469707391
:102240003A09526576205075626C697368436F6D08
:10225000700D0A00546970733A094D51545420535B
:102260007562736372696265204F4B0D0A0000004E
:10227000546970733A094D51545420537562736315
:1022800072696265204572720D0A000054697073AC
:102290003A094D51545420556E53756273637269F7
:1022A0006265204F4B0D0A00546970733A094D5115
:1022B000545420556E53756273637269626520458C
:1022C00072720D0A0000000070B504460E4600252B
:1022D000206898B901202073304602F033FC20605A
:1022E0002068E0B100206060A66003E00020216863
:1022F00048556D1CA068A842F8D810E00220207351
:1023000003E00020216848556D1CA068A842F8D859
:1023100000206060A068B04201D20020206070BD43
:1023200010B50446207B012802D1206802F039FC58
:10233000002020606060A060207310BD0246002372
:1023400001230DE002F07F000870D2092AB108785D
:1023500040F080000870491C01E0184670475B1C83
:10236000042BEFDD4FF0FF30F8E7F0B504460D46E3
:102370002646012300201060002114E0775C07F05E
:102380007F07106807FB03001060705C00F080009E
:1023900008B9481CF0BDDB01B3F5001F02D36FF094
:1023A0000100F7E7491CA942E8DB4FF0FF30F1E7F5
:1023B000F8B50446FF2720780511012D01DB0E2D0D
:1023C00001DD3846F8BD032D24D1002000906A4677
:1023D0000421601CFFF7C9FF2044461C0098022816
:1023E00003D3207800F0010008B1FF20EAE77078FD
:1023F000317840EA0120801C0099884201D9FF20F1
:10240000E0E7F8A1B01C02F0F4FD08B10F2700E0EE
:10241000032700E02F463846D4E72DE9FF4F83B06D
:1024200082468B469146159C0025002002900F277E
:102430000190484602F013FE0FFA80F8B9F1000F40
:1024400003D1012007B0BDE8F08F08F10200384445
:1024500087B2109808B145F00205129878B145F09E
:102460000405129802F0FBFDC0B20290139802F02E
:10247000F6FD01460298001D0844384487B21198C1
:1024800020B1012804D0022808D104E000BF07E0F1
:1024900045F00C0504E045F0140501E00220D1E709
:1024A00000BF149808B145F02405BAF1000F02D01E
:1024B000BBF1000F01D10320C4E745F0C005504631
:1024C00002F0CDFD0646584602F0C9FD3044001D1D
:1024D000384487B239462046FFF7F6FE206808B92F
:1024E0000420AFE73946206802F09AFE10216268A6
:1024F000501C606020688154D4E90023D118781FF3
:10250000FFF71CFF00B201900198002804DA204672
:10251000FFF706FF052095E76168019808446060B1
:1025200000216268501C6060206881540421626848
:10253000501C6060206881544D216268501C6060AE
:102540002068815451216268501C60602068815469
:1025500054216268501C6060206881546268501C7D
:1025600060602068815404216268501C60602068AB
:1025700081546168481C6060206845540698010ACF
:102580006268501C6060206881540698C1B262681D
:10259000501C606020688154C8F307216268501C99
:1025A0006060206881546268501C6060206800F898
:1025B0000280D4E9001288184246494602F007FD1D
:1025C00060684044606005F00400B8B300261398CA
:1025D00008B986A01390129802F041FD86B2310A24
:1025E0006268501C6060206881546268501C6060A2
:1025F00020688654D4E9001288183246129902F0F5
:10260000E6FC606830446060139802F028FD86B2F2
:10261000310A6268501C6060206881546268501CF6
:10262000606020688654D4E90012881832461399F5
:1026300002F0CDFC60683044606000BF05F08000AF
:10264000C8B1504602F00BFD86B2310A6268501CD8
:102650006060206881546268501C60602068865405
:10266000D4E9001288183246514602F0B0FC606886
:102670003044606000BF05F04000C8B1584602F029
:10268000EEFC86B2310A6268501C6060206881549A
:102690006268501C606020688654D4E90012881873
:1026A0003246594602F093FC60683044606000BFD7
:1026B0000020C7E610B5044602212046FFF704FEBD
:1026C000206808B9012010BDE0216268501C6060DC
:1026D0002068815400216268501C60602068815429
:1026E0000020F0E701464878022801D00120704719
:1026F000887810B18878012801D1C878F7E7FF20E1
:10270000F5E72DE9FF4F83B0834617469946139CA2
:10271000002500260020029001908046BBF1000FAA
:1027200003D1012007B0BDE8F08F00260AE004982D
:10273000805D232803D00498805D2B2801D10220DE
:10274000F0E7761C0498805D0028F0D148F030084E
:10275000119808B148F0010806EB0900851C109893
:1027600020B1012804D002280AD105E000BF09E009
:1027700048F00208AD1C05E048F00408AD1C01E07B
:102780000320CFE700BF67B33878022821D14FF08C
:10279000000A00BF50460AF1010A385C7D28F9D1D1
:1027A000AAF1030A0AF1070002900298A9EB000AB5
:1027B000E81CA0EB0A012046FFF786FD206808B957
:1027C0000420AFE7EA1CA2EB0A01206802F028FD12
:1027D0001FE0691D2046FFF777FD206840B90420FF
:1027E000A0E70AE0246372657100000000000000A9
:1027F000691D206802F014FD0BE0691D2046FFF7FB
:1028000063FD206808B904208CE7691D206802F088
:1028100007FD6168481C6060206800F80180D4E909
:10282000000281182846FFF789FD019001980028D1
:1028300004DA2046FFF774FD052073E7616801980C
:1028400008446060C6F307216268501C606020681D
:1028500081546268501C606020688654D4E900127C
:1028600088183246049902F0B2FB60683044606018
:10287000109860B14FEA1B216268501C60602068AC
:1028800081546268501C6060206800F802B0C7B1D3
:10289000387802280BD1D4E9001288183946029AF8
:1028A00002F047FC616802980844606009E0D4E9DE
:1028B000001288184A46394602F03BFC60684844DA
:1028C000606000202EE72DE9FF4107460D46904647
:1028D0001E460A9C01200021CDE90001EB1C0A469E
:1028E000FAA1CDE902040A20FFF70BFF88B961685D
:1028F000481C606020684654C5F307216268501C7C
:102900006060206881546268501C60602068855453
:1029100003E0012004B0BDE8F0810020FAE72DE9D2
:10292000F04F85B080460D46914601200490002767
:10293000002600244FF0000A404602F090FB00F110
:102940000D0B584602F0FEF807461FB9049805B073
:10295000BDE8F08F4246DEA1384602F071F93846F4
:1029600002F07DFBC6B2F01D00EB050AAAEB0500E4
:1029700002F0E8F8044624B9384602F012F9049847
:10298000E5E70220207000206070A67032463946CC
:10299000E01C02F0CEFB290EF01C2154C5F30741C8
:1029A000301D2154C5F30721701D2154B01D25543D
:1029B00001200021CDE9000153462246C3A1CDE903
:1029C00002090A20FFF79DFE08B90020049038464E
:1029D00002F0E7F8204602F0E4F80498B7E72DE9A2
:1029E000F84380460C4615461E462F2108F1060086
:1029F00002F0E3FA07460020009017B90120BDE875
:102A0000F8837F1C6A46042108F10100FFF7ADFC42
:102A1000252002F097F82060206808B90220EEE730
:102A20002521206802F0FCFB24223946206802F0B0
:102A300080FB243700982C3830803188481C02F005
:102A400081F82860286820B9206802F0AAF80320DD
:102A5000D5E73288511C286802F0E2FB32883946FB
:102A6000286802F066FB0020C9E72DE9FF5F0746F2
:102A70000D469046384602F0F2FA86B2284602F039
:102A8000EEFA1FFA80FA4FF00009F01D02F05AF832
:102A900004461CB9012004B0BDE8F09FF11D20469A
:102AA00002F0BEFB8EA0016821608088A0803246C3
:102AB0003946204602F08BFA284602F0D0FA8346C7
:102AC0000120002100915B462A46CDE902080191D0
:102AD00021460A20FFF715FE10B94FF0000901E06A
:102AE0004FF00109204602F05CF84846D3E72DE993
:102AF000FF5F8046174699460E9C0026B246B346B5
:102B00000025B8F1000F03D1012004B0BDE8F09F0B
:102B10000BE057F8250008B90220F6E757F8250022
:102B200002F09DFA0644681CC5B24D45F1DB09EB85
:102B30004900801C00EB060A0AF105012046FFF758
:102B4000C3FB206808B90320DFE782216268501CBC
:102B5000606020688154D4E9000281185046FFF774
:102B6000EDFB0FFA80FBBBF1000F04DA2046FFF704
:102B7000D7FB0420C9E76068584460604FEA182119
:102B80006268501C6060206881546268501C6060FC
:102B9000206800F80280002524E057F8250002F0A4
:102BA0005EFA0646C6F307216268501C6060206822
:102BB00081546268501C606020688654D4E9002308
:102BC000D01857F82510324602F001FA60683044F8
:102BD00060600198C1B26268501C606020688154D6
:102BE000681CC5B24D45D8DB00208EE70146FF20AA
:102BF0008A78A2B9CA78142A11D10A7932B1012A85
:102C000005D0022A04D0802A06D103E000BF00BF0D
:102C1000002003E0012001E0022000BF00BF704758
:102C20002DE9F05F80460F4691461C460026B246CD
:102C3000B3460025B8F1000F02D10120BDE8F09F96
:102C40000BE057F8250008B90220F7E757F82500F0
:102C500002F005FA0644681CC5B24D45F1DB0220BE
:102C600000EB490000EB060A0AF105012046FFF7D8
:102C70002BFB206808B90320E0E7A2216268501C02
:102C8000606020688154D4E9000281185046FFF743
:102C900055FB0FFA80FBBBF1000F04DA2046FFF76B
:102CA0003FFB0420CAE76068584460604FEA18217F
:102CB0006268501C6060206881546268501C6060CB
:102CC000206800F8028000252CE0000024647000D9
:102CD0007B2264735F6964223A222573227D00009F
:102CE00024637273702F000057F8250002F0B7F9C3
:102CF0000646C6F307216268501C60602068815454
:102D00006268501C606020688654D4E90023D018A3
:102D100057F82510324602F05AF960683044606076
:102D2000681CC5B24D45DFDB002087E70146012066
:102D30008A781AB9CA781E2A00D1002070472DE976
:102D4000FC5F81460D4614461E46DDE90C8B99F862
:102D5000000000F00F0A002001900AF00800009027
:102D6000CAF341008BF8000001AA042109F1010017
:102D7000FFF7FBFA4844471C0198022802D30AF0E7
:102D8000010010B1FF20BDE8FC9F7878397840EA57
:102D9000012020802088801C0199884201D9FF20D1
:102DA000F1E7AFF2C051B81C02F023F908B10F20CF
:102DB000E9E79BF8000020B101283DD0022877D137
:102DC0003BE0009808B1FF20DDE72188481C01F0B6
:102DD000B9FE2860286808B9FF20D4E72288511C72
:102DE000286802F01DFA2288B91C286802F0A1F9AF
:102DF0000198801E2188401AA8F80000B8F8001039
:102E0000481C01F09FFE3060306820B9286801F04E
:102E1000C8FEFF20B7E7B8F80020511C306802F068
:102E2000FFF9B8F80020B4F800C0BB1C0CEB03019C
:102E3000306802F07EF94FE000BF2088801C0199C5
:102E4000884201D9FF209EE72088C01C395C208879
:102E5000801C385C41EA00210E9801800E9808B968
:102E6000FF2090E72188481C01F06CFE286028684C
:102E700008B9FF2087E72288511C286802F0D0F9A2
:102E80002288B91C286802F054F90198001F218893
:102E9000401AA8F80000B8F80010481C01F052FED3
:102EA0003060306828B9286801F07BFEFF206AE7AF
:102EB00010E0B8F80020511C306802F0B1F9B8F801
:102EC0000020B4F800C03B1D0CEB0301306802F099
:102ED00030F901E0FF2056E700BF2B21284602F021
:102EE0006CF820B92321284602F067F808B1FF20CA
:102EF00049E7002047E770B505460C460421204607
:102F0000FFF7E2F9206808B9012070BD402162682E
:102F1000501C60602068815402216268501C60600F
:102F20002068815429126268501C606020688154B6
:102F30006268501C6060206885540020E5E7014607
:102F40004878022801D001207047887820B9C878D5
:102F50000A2801D10020F7E70120F5E770B5054602
:102F60000C4604212046FFF7AFF9206808B901207C
:102F700070BD50216268501C60602068815402213D
:102F80006268501C60602068815429126268501C7D
:102F90006060206881546268501C606020688554BD
:102FA0000020E5E701464878022801D0012070475B
:102FB000887820B9C8780A2801D10020F7E70120D5
:102FC000F5E770B505460C4604212046FFF77CF96D
:102FD000206808B9012070BD62216268501C6060E1
:102FE0002068815402216268501C6060206881540E
:102FF00029126268501C6060206881546268501C0D
:103000006060206885540020E5E702465078022879
:1030100001D0012070479078B0EB112F05D1D07806
:10302000CBB2984201D10020F4E70120F2E770B55D
:1030300005460C4604212046FFF746F9206808B9EA
:10304000012070BD70216268501C6060206881544E
:1030500002216268501C60602068815429126268F5
:10306000501C6060206881546268501C6060206859
:1030700085540020E5E701464878022801D0012068
:103080007047887820B9C8780A2801D10020F7E76E
:103090000120F5E710B5044602212046FFF714F998
:1030A000206808B9012010BDC0216268501C606012
:1030B0002068815400216268501C6060206881543F
:1030C0000020F0E7FE480068704770B504460D46E2
:1030D0002CB9AC4201D0012070BD0020FCE70DB935
:1030E0000120F9E705E0207808B90020F4E7641C26
:1030F0006D1C207801F07CFD0646287801F078FDF3
:103100008642F0D0207801F073FD0646287801F061
:103110006FFD301AE0E770B50446204601F09FFFCE
:10312000451C2846E74909688847061E00D170BD3E
:103130002A462146304601F0FCFF3046F7E730B919
:10314000E149E04A1160E149E14A116070470168D4
:1031500009B1016800E0DC49DA4A1160416809B14F
:10316000416800E0D949DA4A116000BFEEE710B5C6
:103170002820D4490968884704461CB128212046E4
:1031800002F070F8204610BD70B5044622E02568B4
:10319000A08900F4807020B9A06810B1A068FFF782
:1031A000F3FFA08900F4807028B9206918B1C849DC
:1031B000206909688847A08900F4007028B9206A4E
:1031C00018B1C349206A096888472046C049096880
:1031D00088472C46002CDAD170BD2DE9F04F8BB01A
:1031E00083468A460020044605460026B94F002142
:1031F000884689460990012008909AF800002D28F9
:1032000002D1B54F0AF1010A9AF80000302801D125
:103210000AF1010A9AF80000312822DB9AF800002E
:1032200039281EDC00BF1AF8011BA1F1300004F0A0
:1032300080FB0022A94BCDE906012046294604F077
:10324000CBFBCDE90401DDE9062304F0F3F80446E5
:103250000D469AF80000302803DB9AF80000392860
:10326000E1DD9AF800002E2830D19AF801003028CC
:103270002CDB9AF80100392828DC0AF1010A00BF8A
:103280001AF8011BA1F1300004F053FB0022934B0C
:10329000CDE906012046294604F09EFBCDE9040154
:1032A000DDE9062304F0C6F804460D460022894BEA
:1032B0004046494604F0B6FD804689469AF800002B
:1032C000302803DB9AF800003928D9DD9AF800008D
:1032D000652803D09AF80000452823D10AF1010A95
:1032E0009AF800002B2802D10AF1010A08E09AF8A6
:1032F00000002D2804D14FF0FF3008900AF1010A98
:1033000008E01AF8010B3038099901EB810100EB54
:10331000410009909AF80000302803DB9AF8000079
:103320003928EEDDDDE9082101FB02F004F001FBA4
:1033300042464B46CDE9000104F07CF802460B46BC
:10334000CDE902010020654903F036FB22462B46F9
:10335000CDE906013046394604F03EFBCDE90401D3
:10336000DDE9062304F038FB04460D46CBE90645AB
:103370002046294604F0AEFACBF814000320CBF81F
:103380000C0050460BB0BDE8F08F0146491E41EAE3
:10339000610141EAA10141EA211141EA212141EA09
:1033A0002141481C70472DE9F04104460E460CB1FE
:1033B000206810B90020BDE8F081A068064460686C
:1033C000B04203DBA16820680844F4E73046FFF709
:1033D000DCFF074638463B490968884705463DB942
:1033E0003B49206809688847002060602060E2E768
:1033F00025B12846D4E9001201F09BFE344920682B
:103400000968884767602560A0682844D3E770B5DD
:1034100004460CB1206808B9002070BDA16820687E
:103420004518284601F01BFEA1680844F5E72DE980
:10343000FC4782460E464FF00009DAE906450022B5
:1034400013462046294604F009FA13D12EB1022171
:103450003046FFF7A8FF814604E0022019490968B9
:1034600088478146B9F1000F03D01DA00088A9F854
:1034700000009FE0DAF8140004F05BFA07462246E9
:103480002B4604F0CFFC21F000410022154BCDE982
:10349000000104F065FA3ED8134A144B2046294631
:1034A00004F05EFA37D80022114B2046294604F07A
:1034B00091FB30D806B315213046FFF774FF19E0B1
:1034C000380000203C000020454B0008A34B0008BA
:1034D000400000200000F03F0000F0BF000024404A
:1034E000300000000000B03C0000C0FFFFFFDF41E3
:1034F0000000E0C1814604E01520FA4909688847C8
:103500008146B9F1000F55D0F7A14846DAF81420EA
:1035100001F096FB4EE02EB140213046FFF743FF0D
:10352000814604E04020EF49096888478146B9F1A7
:10353000000F3FD02046294603F0D0F90746224627
:103540002B4604F06FFC21F000410022E74BCDE94F
:10355000000104F005FA0FD825F000412746E44A9F
:10356000E44B384604F0FCF906D222462B46E2A191
:10357000484601F065FB1DE025F000412746E04A82
:10358000E04B384604F0ECF907D325F00041002267
:10359000DD4B384604F01EFB06D222462B46DBA14B
:1035A000484601F04DFB05E022462B46D8A148468F
:1035B00001F046FB4846BDE8FC870146002208783A
:1035C000302806DB0878392803DC087830380244D4
:1035D00015E00878412806DB0878462803DC0878DF
:1035E000373802440BE00878612806DB0878662843
:1035F00003DC08785738024401E0002070471201CC
:10360000491C0878302806DB0878392803DC08785C
:103610003038024415E00878412806DB087846284F
:1036200003DC0878373802440BE00878612806DBB1
:103630000878662803DC08785738024401E0002047
:10364000DCE71201491C0878302806DB08783928A5
:1036500003DC08783038024415E00878412806DB9E
:103660000878462803DC0878373802440BE00878ED
:10367000612806DB0878662803DC0878573802449E
:1036800001E00020BAE71201491C0878302806DB67
:103690000878392803DC08783038024415E00878C7
:1036A000412806DB0878462803DC087837380244CE
:1036B0000BE00878612806DB0878662803DC0878C8
:1036C0005738024401E0002098E7104696E72DE9BC
:1036D000F05F8346884608F10104002798F800004F
:1036E000222805D08B48C0F800800020BDE8F09F5C
:1036F00004E014F8011B5C2900D1641C2078222806
:1037000004D0207810B1781C071EF2D1781C7549BE
:10371000096888478146B9F1000F01D10020E5E72B
:1037200008F101044D469EE020785C2804D014F88E
:10373000010B05F8010B96E0641C2078722818D064
:1037400006DC622809D066280BD06E287ED10CE0FA
:10375000742812D07528F9D113E0082005F8010B60
:103760007FE00C2005F8010B7BE00A2005F8010B37
:1037700077E00D2005F8010B73E0092005F8010B37
:103780006FE0601CFFF719FF0646241DB6F55C4F7D
:1037900002D3B6F5604F00D306B962E0B6F5584FD4
:1037A0001CD3B6F55C4F19D260785C2802D1A078A2
:1037B000752800D055E0E01CFFF7FFFE8246A41DEF
:1037C000BAF55C4F02D3BAF5604F00D349E0C6F3B7
:1037D0000901504661F39F2000F580360427802EB2
:1037E00001D2012708E0B6F5006F01D2022703E0FD
:1037F000B6F5803F00D203273D44012F20D0022F91
:1038000015D0032F0AD0042F24D106F0BF0040F0BA
:103810008001681E05460170B60900BF06F0BF00B2
:1038200040F08001681E05460170B60900BF06F031
:10383000BF0040F08001681E05460170B60900BF58
:103840003548C05D3043C1B2681E00E005E0054662
:10385000017000BF00BF3D4403E0207805F8010B74
:1038600000BF00BF641C2078222803D020780028E5
:103870007FF45AAF002028702078222800D1641CE1
:10388000CBF810900420CBF80C0020462EE72DE951
:10389000F05F804689460027BB46454611E0287800
:1038A000002802DD2878202805DB2878222802D08D
:1038B00028785C2801D1012000E0002040EA0B0BB1
:1038C0006D1C28780028EAD1BBF1000F3ED1A5EB92
:1038D0000807B9F1000F21D0F91C4846FFF763FD36
:1038E000064620E03C000020256400000000B03CBB
:1038F00044F3C2E4E4E9634C252E30660000000086
:103900008DEDB5A0F7C6B03E65CDCD412565000073
:103910002566000038000020D8810008F81CFD4909
:1039200009688847064616B90020BDE8F09F34466E
:10393000222004F8010B4146204601F06CFB2220B6
:10394000E0550021781C21543046EEE7B8F1000F15
:1039500016D1B9F1000F05D003214846FFF723FD2A
:10396000064604E00320EB490968884706460EB97D
:103970000020DAE7E8A1304601F04DFB3046D4E7FD
:1039800045460BE05146E5A001F017FB08B17F1C4E
:1039900003E0BAF1200F00DA7F1D6D1C95F800A03E
:1039A000BAF1000F02D0781C071EEBD1B9F1000F5D
:1039B00005D0F91C4846FFF7F6FC064604E0F81C63
:1039C000D4490968884706460EB90020ADE7344659
:1039D0004546222004F8010B47E028781F280ADD1D
:1039E0002878222807D028785C2804D015F8010B05
:1039F00004F8010B39E05C2004F8010B15F8011BF9
:103A00008A460C2919D006DC082912D0092920D0B1
:103A10000A2922D115E00D2917D0222905D05C29C9
:103A20001BD15C2004F8010B1EE0222004F8010BDE
:103A30001AE0622004F8010B16E0662004F8010B7E
:103A400012E06E2004F8010B0EE0722004F8010B66
:103A50000AE0742004F8010B06E05246B1A12046AA
:103A600001F0EEF8641D00BF00BF28780028B4D133
:103A7000222004F8010B002004F8010B304654E723
:103A800070B504460D4629462069FFF700FF70BD5A
:103A900000E0401C20B1017811B101782029F8DD47
:103AA00070472DE9F04706460C4620787B2804D065
:103AB0009E4804600020BDE8F0870620F060601C8E
:103AC000FFF7E6FF044620787D2801D1601CF2E76D
:103AD000FFF74DFB0546B060B06808B90020EAE783
:103AE0002046FFF7D5FF804641462846FFF7EFFD09
:103AF0000746FFF7CDFF04460CB90020DBE7286935
:103B000028620020286120783A2803D08748046082
:103B10000020D0E7601CFFF7BBFF804641462846E7
:103B200000F099F80746FFF7B3FF04460CB90020F0
:103B3000C1E731E0FFF71BFB071E00D1BBE72F6099
:103B40007D603D46601CFFF7A3FF8146494628463D
:103B5000FFF7BDFD8046FFF79BFF04460CB9002030
:103B6000A9E7286928620020286120783A2803D034
:103B70006E48046000209EE7601CFFF789FF8146C5
:103B80004946284600F067F88046FFF781FF044663
:103B90000CB900208FE700BF20782C28CAD02078ED
:103BA0007D2801D1601C86E760480460002082E720
:103BB0002DE9F04705460C4620785B2804D05B4889
:103BC00004600020BDE8F0870520E860601CFFF776
:103BD0005FFF044620785D2801D1601CF2E7FFF703
:103BE000C6FA0646A860A86808B90020EAE7204699
:103BF000FFF74EFF80464146304600F02CF807465E
:103C0000FFF746FF04460CB90020DBE717E0FFF79B
:103C1000AEFA071E00D1D5E737607E603E46601CD5
:103C2000FFF736FF81464946304600F014F88046DB
:103C3000FFF72EFF04460CB90020C3E700BF207831
:103C40002C28E4D020785D2801D1601CBAE73748E1
:103C500004600020B6E770B505460C460CB900209C
:103C600070BD042232A1204601F018FA18B90220D2
:103C7000E860201DF4E705222FA1204601F00EFA8E
:103C800018B90020E860601DEAE704222CA1204654
:103C900001F004FA20B90120E8606861201DDFE727
:103CA0002078222804D121462846FFF710FDD7E7C7
:103CB00020782D2805D02078302807DB2078392877
:103CC00004DC21462846FFF788FAC9E720785B28FC
:103CD00004D121462846FFF76BFFC1E720787B28F7
:103CE00004D121462846FFF7DCFEB9E70F480460FF
:103CF0000020B5E72DE9F04780460D461646002422
:103D0000FFF735FA0746002008490860E7B9BDE823
:103D1000F08700003C00002022220000225C080CFA
:103D20000A0D0900752530347800000038000020A5
:103D30006E756C6C0000000066616C7365000000BD
:103D400074727565000000004046FFF7A1FE8146D1
:103D500049463846FFF77FFF04462CB93846FFF73F
:103D600013FA0020BDE8F08766B12046FFF790FE09
:103D70000446207830B13846FFF706FAFE48046062
:103D80000020EFE705B12C603846EBE710B504469C
:103D9000002211462046FFF7ADFF10BD2DE9FF4F71
:103DA00089B0884616461F46002008900790069066
:103DB0004FF0070A00250998D0F8089000200290DB
:103DC0000190009004E00298401C0290D9F8009005
:103DD000B9F1000FF7D10298002835D157B116B1CB
:103DE00008F1040000E0032001463846FFF7DBFA43
:103DF000069009E016B108F1040100E0032108462D
:103E0000DE49096888470690069818B900200DB069
:103E1000BDE8F08F069C7B2004F8010B66B10A20F8
:103E200004F8010B002503E0092004F8010B6D1CC8
:103E3000A8F10100A842F7DC7D2004F8010B002066
:103E400004F8010B0698E2E7002F77D0BD680EB1A9
:103E5000022000E0012082460AF101013846FFF706
:103E6000A2FA04460CB90020D1E77B2004F8010B2C
:103E700016B10A2004F8010B00202070B8685044E5
:103E8000B8600998D0F8089008F1010868E0B6B168
:103E900041463846FFF787FA04460CB90020B6E7DA
:103EA0000020039005E0092004F8010B0398401C52
:103EB000039003984045F6DBB8684044B860394643
:103EC000D9F82000FFF7E3FC3846FFF7A0FAB86006
:103ED0000EB1022000E00120824651463846FFF72D
:103EE00062FA04460CB9002091E73A2004F8010B6D
:103EF00016B1092004F8010BB8685044B8603B467D
:103F000032464146484600F078FA3846FFF77FFAD5
:103F1000B8600EB1012000E00020D9F8001009B10E
:103F2000012100E0002100EB010A0AF101013846FD
:103F3000FFF739FA044614B9002068E734E0D9F8ED
:103F4000000010B12C2004F8010B16B10A2004F86F
:103F5000010B00202070B8685044B860D9F8009078
:103F6000B9F1000F93D116B108F1010000E0022071
:103F700001463846FFF717FA04460CB9002046E719
:103F80004EB1002503E0092004F8010B6D1CA8F1D7
:103F90000100A842F7DC7D2004F8010B002020700E
:103FA00038682844069005E1029988007349096839
:103FB00088470890089808B9002028E702998800E7
:103FC0006E49096888470790079828B96C4908988E
:103FD0000968884700201AE702988100089801F0D4
:103FE00041F902988100079801F03CF90998D0F84E
:103FF000089008F1010806B1C2442EE00021D9F86A
:104000002000FFF744FC0490079941F825000023A5
:1040100032464146484600F0F0F929466D1C0590AD
:10402000089A42F82100049898B1059888B105983B
:1040300001F015F88346049801F011F80BEB00012C
:10404000891C16B108F1020000E0002008448244F7
:1040500001E001200190D9F80090B9F1000FCDD115
:10406000019820B950464549096888470690069846
:1040700008B901200190019818B3002514E00798B1
:1040800050F8250028B1079951F825003C490968E6
:104090008847089850F8250028B1089951F825005C
:1040A0003749096888476D1C02988542E7DB344927
:1040B00007980968884732490898096888470020A6
:1040C000A5E67B21069801700698441C16B10A20CB
:1040D00004F8010B00202070002548E05EB10020AC
:1040E000039005E0092004F8010B0398401C03909D
:1040F00003984045F6DB079951F8250000F0AFFF23
:104100000090079850F825102046009A01F011F809
:10411000009804443A2004F8010B16B1092004F871
:10412000010B089850F82510204600F074FF0899FC
:1041300051F8250000F093FF04440298401EA84265
:1041400002D02C2004F8010B16B10A2004F8010B50
:1041500000202070079951F825000949096888470F
:10416000089951F825000649096888476D1C02988E
:104170008542B3DB024905E0380000203C00002006
:1041800040000020079809688847F749089809689F
:1041900088474EB1002503E0092004F8010B6D1C8F
:1041A000A8F10100A842F7DC7D2004F8010B0020F3
:1041B00004F8010B06982AE62DE9FF4F85B09246D8
:1041C0001E464FF0000B052003900598D0F808809C
:1041D000D946002500200290019003E009F1010971
:1041E000D8F80080B8F1000FF8D1B9F1000F16D15E
:1041F0002EB103213046FFF7D6F8834604E00320B2
:10420000DA49096888478346BBF1000F03D0D8A17B
:10421000584600F000FF584609B0BDE8F08F002E68
:1042200057D0B56801213046FFF7BDF804460CB9F8
:104230000020F1E75B202070B068401CB06005985A
:10424000D0F808802EE0334652460699491C404675
:1042500000F0D3F83046FFF7DAF8B060D8F8000085
:10426000F0B1BAF1000F01D0022000E0012003906C
:104270000399491C3046FFF796F804460CB9002014
:10428000CAE72C2004F8010BBAF1000F02D020205D
:1042900004F8010B00202070B16803980844B06056
:1042A000D8F80080B8F1000F02D002980028CAD0D8
:1042B00002213046FFF777F804460CB90020ABE73F
:1042C0005D2004F8010B00202070306800EB050B26
:1042D00091E04FEA8900A5490968884707460FB968
:1042E000002099E74FEA8901384600F0BBFF0598A6
:1042F000D0F8088021E0002352460699491C404628
:1043000000F07BF8049029466D1C049847F82100C2
:10431000049870B1049800F0A2FE801CBAF1000F5E
:1043200001D0012100E000210144039808440390DA
:1043300001E001200290D8F80080B8F1000F02D00F
:1043400002980028D7D0029820B9884903980968B4
:1043500088478346BBF1000F01D1012002900298EB
:1043600090B1002508E057F8250020B157F8250046
:104370007D49096888476D1C4D45F4DB38467A490C
:1043800009688847002047E75B208BF800000BF1A5
:10439000010400202070002521E057F8250000F0DE
:1043A0005EFE019057F825102046019A00F0C1FEEC
:1043B00001980444A9F10100A8420AD02C2004F875
:1043C000010BBAF1000F02D0202004F8010B0020ED
:1043D000207057F825006449096888476D1C4D45D1
:1043E000DBDB38466049096888475D2004F8010B2B
:1043F000002004F8010B58460EE72DE9F041044671
:104400000F4690461D46002614B90020BDE8F081F5
:10441000002D49D0207B072845D2DFE800F0101C92
:1044200004282E343C0005212846FEF7BCFF064632
:1044300026B1AFF20471304600F0EDFD33E0062105
:104440002846FEF7B0FF064626B1AFF2147130469B
:1044500000F0E1FD27E005212846FEF7A4FF06460F
:1044600026B1AFF22471304600F0D5FD1BE029469D
:104470002046FEF7DCFF064615E029462046FFF7FA
:10448000FFFA06460FE02B46424639462046FFF724
:1044900093FE064607E02B46424639462046FFF784
:1044A0007DFC064600BF37E0207B072833D2DFE8DB
:1044B00000F00A1004161C222A00AFF28C70FEF7DE
:1044C0002AFE064627E0AFF29070FEF724FE06466D
:1044D00021E0AFF29470FEF71EFE06461BE00021BD
:1044E0002046FEF7A4FF064615E000212046FFF710
:1044F000C7FA06460FE00023424639462046FFF73A
:104500005BFE064607E00023424639462046FFF799
:1045100045FC064600BF00BF304677E710B50446AD
:104520000023012219462046FFF767FF10BD10B592
:10453000044600231A4619462046FFF75EFF10BDC9
:10454000FEB505460C4616462046084909688847C8
:1045500000900194002002906B46324600212846CC
:10456000FFF74BFFFEBD0000400000203C00002094
:104570005B5D000001468A68002001E0401C126873
:10458000002AFBD170470246906801E0491E00688E
:1045900008B10029FADC704770B505460E46AC68D4
:1045A00000E024682CB13146206AFEF78EFD002819
:1045B000F7D1204670BD01604860704770B5054670
:1045C000FEF7D5FD04460CB9002070BD282229460F
:1045D000204600F0F3FD00202062E06840F4807087
:1045E000E0600020606020602046EEE770B5054680
:1045F0000E46AC6806B970BD0CB9AE6009E000E0CB
:10460000246814B120680028FAD131462046FFF70B
:10461000D2FF00BFEFE770B506460D46144604B959
:1046200070BD206A18B1FE49206A0968884728468B
:10463000FEF771FD206221463046FFF7D7FF00BF2D
:10464000EEE770B506460D46144604B970BDA08964
:1046500000F4007028B9206A18B1F149206A09688D
:1046600088472562E06840F40070E06021463046EB
:10467000FFF7BCFF00BFE9E770B505460C462046D2
:10468000FFF79CFF064631462846FFF7AFFF70BD97
:104690002DE9F04105460E4614462046FFF78EFFF1
:1046A00007463A4631462846FFF7B5FFBDE8F08198
:1046B00010B502460B46916801E009685B1E09B11E
:1046C000002BFADC09B9002010BD486810B1D1E90F
:1046D00000042060086810B1D1E900406060906873
:1046E000884201D108689060002008604860084650
:1046F000EAE770B504460D4629462046FFF7D8FF85
:104700000646FEF741FD70BD2DE9F04105460F4616
:104710000026AC6801E0761C24682CB13946206A7A
:10472000FEF7D3FC0028F6D12CB131462846FFF71E
:10473000BFFFBDE8F0810020FBE770B504460D46E1
:1047400029462046FFF7E0FF0646FEF71DFD70BD37
:104750002DE9F04106460F461446B56801E02D6884
:104760007F1E0DB1002FFADC2DB921463046FFF730
:104770003DFFBDE8F0812560686860606C60B068EE
:10478000A84201D1B46001E06068046000BFF0E7B6
:104790002DE9F04106460F461446B56801E02D6844
:1047A0007F1E0DB1002FFADC0DB9BDE8F08128683D
:1047B000206068686060206808B120684460B06864
:1047C000A84201D1B46001E0606804600020686024
:1047D00028602846FEF7D8FC00BFE6E72DE9F04147
:1047E00005460E4617464FF00008AC6802E008F197
:1047F000010824682CB13146206AFEF766FC0028C7
:10480000F5D144B13046FEF786FC38623A4641465F
:104810002846FFF7BDFFBDE8F08110B5FEF7A7FC05
:1048200004460CB10220E060204610BD10B5FEF732
:104830009EFC04460CB10120E060204610BD10B57E
:10484000FEF795FC04460CB10020E060204610BD48
:1048500070B50546FEF78BFC044624B10DB101206E
:1048600000E00020E060204670BD70B505460E46B1
:10487000FEF77DFC044644B10320E060C4E906561F
:104880002846314603F026F86061204670BD70B5B9
:104890000546FEF76CFC04462CB10420E060284677
:1048A000FEF739FC2061204670BD10B5FEF75FFCB5
:1048B00004460CB10520E060204610BD10B5FEF79F
:1048C00056FC04460CB10620E060204610BD2DE9E0
:1048D000F05F81468A460025AB46FFF7E6FF0646B5
:1048E000002410E059F8240003F023F80746FFF7EE
:1048F000BCFF05460CB9B56003E029465846FFF7F2
:104900005AFEAB46641C0EB15445EBDB3046BDE8A5
:10491000F09F2DE9F05F81468A460025AB46FFF700
:10492000C4FF0646002410E059F8240003F064FB9D
:104930000746FFF79AFF05460CB9B56003E0294624
:104940005846FFF738FEAB46641C0EB15445EBDB0E
:104950003046BDE8F09F2DE9F04707468846002520
:10496000A946FFF7A2FF0646002410E007EBC400AB
:10497000D0E900211046FFF778FF05460CB9B56075
:1049800003E029464846FFF716FEA946641C0EB10F
:104990004445EBDB3046BDE8F0872DE9F04707469C
:1049A00088460025A946FFF780FF064600240DE053
:1049B00057F82400FFF76BFF05460CB9B56003E01C
:1049C00029464846FFF7F7FDA946641C0EB1444549
:1049D000EEDB3046BDE8F0872DE9F0470546894615
:1049E0004FF0000815B90020BDE8F087FEF7BFFBC7
:1049F00004460CB90020F7E7E86820F48070E06016
:104A000068696061D5E90601C4E90601286968B1F1
:104A10002869FEF780FB2061206938B9204601E053
:104A200040000020FEF7B0FB0020DDE7286A50B10F
:104A3000286AFEF770FB2062206A20B92046FEF744
:104A4000A3FB0020D0E7B9F1000F01D12046CBE74E
:104A5000AF6816E001213846FFF7BEFF064626B9CB
:104A60002046FEF791FB0020BEE7B8F1000F05D00D
:104A7000C8F80060C6F80480B04601E0A660B04601
:104A80003F68002FE6D12046AEE7014655E00278A8
:104A9000202A01D1401C50E00278092A01D1401C93
:104AA0004BE002780D2A01D1401C46E002780A2A28
:104AB00001D1401C41E002782F2A0BD142782F2AE5
:104AC00008D100E0401C0278002A36D002780A2A79
:104AD00033D0F7E702782F2A0ED142782A2A0BD159
:104AE00000E0401C02782AB102782A2AF9D14278E3
:104AF0002F2AF6D1801C20E00278222A19D110F842
:104B0000012B01F8012B0AE002785C2A03D110F88E
:104B1000012B01F8012B10F8012B01F8012B027871
:104B200012B10278222AEFD110F8012B01F8012BE3
:104B300003E010F8012B01F8012B0278002AA6D11E
:104B40000A70704770B5064600F0BEFB056806F1B6
:104B50000B0020F00704B4429CBF002070BD2B4620
:104B60006A68BAB11068A04210D304F10801884203
:104B70003CBF5068586007D35168101941601168F4
:104B8000091B016058601460101D70BD1346526807
:104B9000002AE7D12146284600F0A2FB0028DED1FA
:104BA00070BD70B50446051F00F08EFB0068002C38
:104BB00014BF446870BD002C18BFAC423CBF2046F7
:104BC0006468F8D301680A18AA4218BF456003D187
:104BD0002A6805461144016028684119A1421CBF9A
:104BE0006C6070BD6168696021680844286070BDB0
:104BF00010B5044600F060FB0068005DC00602D5F9
:104C000004F1200010BD204610BD00007CB51D46FB
:104C100016460C00009001D02044401E074B7B44F8
:104C20002A4669460190304600F043FE05461CB115
:104C30000020694600F050FE28467CBDC10C0000F3
:104C40000FB41CB5084B06AA7B4469460090059832
:104C500000F02FFE04460020694600F03DFE20468D
:104C60001CBC5DF814FB00008D0C000070B5044600
:104C700085690068C10601D5302600E02026C007FE
:104C800007D070BDD4E9012130469047206A401C0E
:104C900020626D1EF6D570BD70B50446856900783A
:104CA000C00707D170BDD4E9012120209047206AB8
:104CB000401C20626D1EF6D570BD70B50C460546D1
:104CC000012A05D02878800600D5EA69002302E091
:104CD000012305E05B1C934202D2E05C0028F9D17D
:104CE000A869E618C01AA861286A184428622846EC
:104CF000FFF7BCFF04E0D5E9012114F8010B904750
:104D0000B442F8D32846FFF7C7FF70BD2DE9F04144
:104D10000646002410687529314616A510D000F00B
:104D200034FB002802DA404213A507E031688A0705
:104D300001D512A502E0490704D511A5012401E01F
:104D400000F02CFB00210A2206F1240709E0B0FB49
:104D5000F2FCB0FBF2F302FB1C0030307854184632
:104D6000491C0028F3D123462A463046BDE8F041CD
:104D700000F01DBB000000002D0000002B00000013
:104D800020000000F0B40D460188090502D5214C31
:104D90007C4402E01F4C7C440E34002100F12406C8
:104DA00008E002F00F071209E75D42EA03721B09EF
:104DB0007754491C52EA0307F3D102780023120703
:104DC00004D5702D06D009B1022311342246F0BC5F
:104DD00000F0EDBA01231034F8E770B504460D4633
:104DE0002146106800F0DAFA024629462046BDE85E
:104DF00070400023C6E7D21D22F00703D3E9002349
:104E0000C0E70368126843F0200303600823C3610E
:104E10000023B7E74B3400002DE9F05F89460446D4
:104E20004FF0000ADFF874B1FB44C0F820A0204620
:104E3000E1688847002874D0252806D0D4E90121EC
:104E40009047206A401C2062F1E700265F4620461A
:104E5000E16888472028054607DB312D05D27819FF
:104E600010F8200C08B10643F1E7B00701D526F091
:104E70000406C4F81CA00027C4F818A02A2D09D0E5
:104E8000284601F023FD38B304EB8708303DC8F80D
:104E9000185019E059F8041B204604EB8702916171
:104EA000E1688847012F054618D1E069002820DA1B
:104EB00026F020061DE0D8F8180000EB800005EB76
:104EC00040003038C8F818002046E1688847054699
:104ED00001F0FCFC0028EED1012F0AD02E2D08D1C4
:104EE0002046E16888477F1C0546022F46F02006D1
:104EF000C4DBA069002803DA404246F00106A06145
:104F0000F00701D026F010066C2D0BD0682D09D0CB
:104F10004C2D39D06A2D35D0742D35D07A2D33D023
:104F200016E038E0E1682F4620468847B84205463B
:104F300009D16C2F26D04FF48060E16806432046EB
:104F40008847054604E06C2F1AD04FF48070064362
:104F50000DB3A5F14100192802D8203546F40066AA
:104F60004A462946204626604E46FBF71BF980B18B
:104F700001280BD0F61D26F0070000F1080956E7BE
:104F80004020E4E78020D8E70020D6E706F10409B6
:104F90004DE7284652E7206ABDE8F09FDB3300006A
:104FA00070B5064600F094F90468054630460A22BA
:104FB000002100F089FD2C6070BD401ECAB210F8BF
:104FC000011F8A4202D00029F9D10020704710B594
:104FD000431E13F8014F002CFBD105E011F8014BE3
:104FE000002C03F8014B03D0521EF7D20021197098
:104FF00010BD30B505460B462A4613F8014B12F892
:10500000010B08B1A042F8D01CB1002802D06D1CE1
:10501000F1E7284630BD40EA0103024630B59B0760
:1050200010D14FF0013400E008C208C91D1B9D4398
:1050300015EAC41FF8D013F0FF0102F8011B0DD0D0
:105040001B0AF8E711F8013B002B02F8013B05D0E1
:1050500011F8013B002B02F8013BF3D130BD10B534
:10506000431C02E010F8011B71B18107FAD14FF027
:10507000013202C88C1A8C4314EAC211F9D0C01A4A
:105080000A0603D0C01E10BDC01A10BD0A0401D00C
:10509000801E10BD0902FCD0401E10BD40EA010375
:1050A00070B59B072ED14FF00136042A2AD308C8C9
:1050B00010C99D1B9D43121F15EAC61517D0D8B203
:1050C000E1B2401A50EA056110D198B2A1B2401A7B
:1050D00050EA05410AD123F07F4024F07F41401A75
:1050E00050EA052102D1180EA0EB146070BDA34256
:1050F000DBD018BA21BA884201D9012070BD4FF027
:10510000FF3070BD0AB9002070BD10F8013B11F8E6
:10511000014B63B1A3420AD1521E08D010F8013BE3
:1051200011F8014B1BB1A34201D1521EEDD1181B46
:1051300070BD032A40F2308010F0030C00F015809F
:1051400011F8013BBCF1020F624498BF11F801CB8A
:1051500000F8013B38BF11F8013BA2F1040298BFEF
:1051600000F801CB38BF00F8013B11F0030300F059
:105170002580083AC0F0088051F8043B083A51F8FD
:1051800004CBA0E80810F5E7121D5CBF51F8043B02
:1051900040F8043BAFF30080D20724BF11F8013B75
:1051A00011F801CB48BF11F8012B24BF00F8013BD7
:1051B00000F801CB48BF00F8012B704710B5203A2A
:1051C000C0F00B80B1E81850203AA0E81850B1E8C0
:1051D0001850A0E81850BFF4F5AF5FEA027C24BF76
:1051E000B1E81850A0E8185044BF18C918C0BDE86D
:1051F00010405FEA827C24BF51F8043B40F8043B36
:1052000008BF7047D20728BF31F8023B48BF11F8EA
:10521000012B28BF20F8023B48BF00F8012B704744
:105220004FF000020429C0F0128010F0030C00F0CF
:105230001B80CCF1040CBCF1020F18BF00F8012B4D
:10524000A8BF20F8022BA1EB0C0100F00DB85FEA1B
:10525000C17C24BF00F8012B00F8012B48BF00F8E7
:10526000012B70474FF0000200B513469446964656
:10527000203922BFA0E80C50A0E80C50B1F1200169
:10528000BFF4F7AF090728BFA0E80C5048BF0CC017
:105290005DF804EB890028BF40F8042B08BF704775
:1052A00048BF20F8022B11F0804F18BF00F8012BE7
:1052B000704770477047704710B500F041FC001D03
:1052C00010BD00BF1921000000487047CC0000202D
:1052D00000487047C400002070477047704770470F
:1052E00038B504460A4600206946AFF3008000281E
:1052F00008BF38BD02460099204600F025FC012079
:1053000038BD012000F0B8BDF8B5AFF30080054608
:1053100000200C46102000BF0646A819A0420DD957
:10532000324669460020AFF30080070008BF00F056
:10533000A3FD0098A04218BF0546C419FFF7C4FF9B
:1053400005600746F01D20F007004619284600F0CA
:105350000AF8B44208BFF8BDA21B31463868BDE860
:10536000F84000F0F1BB00210160C0E90110704776
:105370001020704710B5FFF7ABFF006810BD10B5E7
:105380000446FFF7A5FF046010BD09684A0501D572
:1053900040B27047C905FCD500B2704709684A059C
:1053A00001D5C0B27047C905FCD580B270472DE960
:1053B000F0470D4699469246044600F124080168DC
:1053C000880604D5E06921F01001216000E0012089
:1053D000A84201DD471B00E00027A1697A1902EB12
:1053E0000900081AA0612078C00602D42046FFF701
:1053F0003DFC002608E0D4E901211AF80600904798
:10540000206A401C761C20624E45F4DB2078C006E2
:105410000AD52046FFF72AFC06E0D4E90121302016
:105420009047206A401C2062381EA7F10107F4DC77
:1054300007E0D4E9012118F805009047206A401CD4
:105440002062281EA5F10105F3DC2046FFF724FCAD
:105450002078000602D50220BDE8F0870120FBE796
:1054600011680268006A530501D508700AE0D30587
:1054700001D5088006E0130603D5C217C1E9000272
:1054800000E008600120704770472DE9FF4F0C468F
:105490001E464FF0FF378BB0D2E90001DDF8608087
:1054A0000A908A46C1F30A5505B93D4600210846CF
:1054B0004FF00000BAF1000F00F4400005DA00EBF5
:1054C00080004FF4400101EA50004FEA9059B9F1D1
:1054D000010F00DDB9460A9850EA4A000ED044F6A2
:1054E0001050A5F2FF3545432F14B8F1000F1ED020
:1054F0007542291E1EDDC9F100021CE0B8F1010F42
:105500004FF0000001D0302103E0F24305E02154C8
:10551000401CB042FBDB30460022002121540B9995
:10552000C1F80880C1E900200FB0BDE8F08FBD1BB5
:105530006D1CDEE74A4600DA694206A800F00AFC64
:1055400006AB93E8070003AB83E8070050460A99CF
:1055500000F06AFD8DE80700A0F500501F380090AC
:105560000398002D0ADD42F21F014A460844002339
:1055700003A90390684600F0D3FF09E0A0F50050AE
:105580004A461F38002303A90390684600F0DDFF58
:105590008DE807000004000C03D04FF0FF304108F5
:1055A00000E01046B8F1000F03D00022009215462B
:1055B0001EE0751E05D400F0E1FA303262556D1E12
:1055C000F9D5B3460122084302D000227F1C04E033
:1055D0002078302801D100227F1E002A099784D02C
:1055E0001DE0112D07DA00F0C9FA303262556D1C4A
:1055F00050EA0102F5D1084302D00098C8B10EE08C
:105600000021681E05E0235C625C63542254401E46
:10561000491C8142F7DBAB46A81B401E09900020C5
:1056200004F80B000B98099AC0F80880C0E9002B19
:105630007AE711264FF0000857E72DE9F04F88462A
:105640000446D21D22F0070191B0D1E90001CDE955
:105650000A0101F0B1F802460B98C00F01D02D20CD
:1056600007E02068810701D52B2002E0202101EA14
:10567000C000032A099001D0072A05DB03464146F2
:10568000204600F0C1FA0BE12078800601D5E069E0
:1056900000E00620B8F1650F814606D0B8F1660F2C
:1056A00018D0B8F1670F70D131E00020B9F1110FB7
:1056B000009001DB112301E009F101030AAA01A90D
:1056C0000CA8FFF7E2FEDDE90C70002609F10105E8
:1056D000834647E001204B4600904FF000470AAA5E
:1056E00001A90CA8FFF7D1FEDDE90DB00C995D46CC
:1056F000002610B909F101000D18B9EB050003D41B
:10570000C0F1FF3609F10105A5EB09002BE0B9F165
:10571000010F01DA4FF001090020B9F1110F0090DB
:10572000484601DD112300E003460AAA01A90CA89E
:10573000FFF7ABFEDDE90C704D460026834620786E
:1057400000070AD4AB4500DA5D4601A8012D04DD4F
:10575000411911F8011C302907D04F4502DA17F121
:10576000040F04DA012082460FE06D1EEEE7002FE1
:1057700002DCED1B3E4403E0781CA84200DD7D1CEA
:10578000B81B00F1010A4FF000472078000703D44E
:10579000AA4501DB4FF0FF3A0021B7F1004F0DF1B0
:1057A00043088DF8431024D002202B23002F01DA68
:1057B0007F422D230A21021EA0F1010000DC5FB10F
:1057C00097FBF1FC97FBF1F201FB1C7C17460CF1F7
:1057D000300C08F801CDEEE7A8F101000370218834
:1057E000090501D5452100E06521A0F1010800F877
:1057F000011C09980FA9A1EB0807FF1D00B10120AA
:10580000411901EBEA70A1693844081A401EA061F1
:105810002078C00602D42046FFF728FA099828B15C
:10582000D4E901219047206A401C20622078C006FC
:1058300022D52046FFF71AFA1EE0002E04DBB345FE
:1058400002DD01A8805D00E03020D4E9012190470D
:10585000206A401C2062761CAAF101005FEA000A5F
:105860000AD100F06DF9C0680168405CD4E90121FB
:105870009047206A401C2062281EA5F10105DCDC4F
:1058800007E0D4E9012118F8010B9047206A401C79
:105890002062381EA7F10107F3DC2046FFF7FCF970
:1058A000032011B041E6000001694A1C026108783A
:1058B000704700B58FB0CDE9013100210591054950
:1058C0007944CDE9031011466846FFF7A5FA0FB0F9
:1058D00000BD0000E5FFFFFF0A6802F8010B0A6047
:1058E0007047D1E900239A4202D2531C0B6010701A
:1058F000704710B5436913B1AFF3008001E0FFF7C3
:10590000DCF9012010BD127800F124010A70002298
:105910004A700122EDE711684FF0FF32E9E700001D
:105920002DE9FF5F15468A460446DFF8AC80F8444F
:105930000027D8E900103E46CDE9001010E03AF803
:1059400016106A4602A800F077FA411C07D02178A9
:10595000890603D5E269391891420DD80744761CAF
:105960002078800602D5E069B84205DDAE42E6DB6C
:105970003AF816000028E2D1A069C01BA0612046B9
:10598000FFF774F9D8E90010CDE90010002017E006
:105990003AF818106A4602A800F04EFAB0F1FF3F3C
:1059A00081460BD000250DF1080B05E0D4E901215B
:1059B0001BF8050090476D1C4D45F7D308F1010019
:1059C000B0428046E4DB206A384420622046FFF77C
:1059D00063F9BDE8FF9F00006E2900002DE9F0414A
:1059E0008046D21D22F007020025D2E90002F529E7
:1059F00015A614D0011E72F1000106DA0023D0EBC7
:105A0000030063EB020211A608E0D8F800108B0730
:105A100001D50FA602E0490701D50EA601251146C2
:105A2000002408F1240704E000F0A8F830323A55C9
:105A3000641C50EA0102F7D12B463246214640460B
:105A4000BDE8F041FFF7B3BC000000002D000000EE
:105A50002B0000002000000030B4002100F12404DD
:105A600008E002F00705D208303542EA4372DB084D
:105A70006554491C52EA0305F3D10468002310A2BF
:105A8000250707D5A40600D421B1C46901230DA2BE
:105A9000641EC46130BCFFF78ABC10B504462146C1
:105AA0001068FFF77BFC02462046BDE8104000234B
:105AB000D2E7D21D22F00701D1E90023CCE7000094
:105AC00000000000300000002DE9F04791460F462D
:105AD00080460446002614F8015B2DB1FFF7ECFB6D
